:100000000C945F030C9487030C9487030C94870370
:100010000C9487030C9487030C9487030C94870338
:100020000C9487030C9487030C945F170C9487033C
:100030000C9487030C9487030C9487030C94870318
:100040000C9487030C9487030C9487030C94870308
:100050000C9487030C9487030C9487030C94C716A5
:100060000C9487030C9487030C9487030C948703E8
:100070000C9487030C9487030C9487030C948703D8
:100080000C9487030C9487030C9487030C948703C8
:100090000C9487030C9487030C9487030C948703B8
:1000A0000C9487030C9487030C948703AED580A827
:1000B0003FD300408D142002A1C8DA12817FD9F10C
:1000C000DB40A4A6AF1201000200000040D0167E63
:1000D0001200010102030112010002000000404C65
:1000E0000568020001010203011201000200000084
:1000F000400D0F920000010102030112010002FFF6
:10010000FFFF405E048E0214010102030109040096
:100110000001030000000921110100012244000731
:10012000058103400001090222000101008032091B
:1001300002220001010080320904000001030000D6
:10014000000921110100012251000705810340002F
:100150000109040000010300000009211101000150
:1001600022700007058103400001090222000101FD
:100170000080320904000001030000000921110180
:1001800000012256000705810340000109022900F1
:1001900001010080FA09211101000122440005013A
:1001A0000905A10115002501750195180509190119
:1001B00029188102050115002507750495010939E3
:1001C000814295018101150026FF007508950809F7
:1001D00030093109320935093609370938093A81B8
:1001E00002C005010905A10105091901290315002E
:1001F000250175019503550065008102750195057E
:10020000810305010901150026FF0375109502A160
:1002100000093009318102C0C005010905A101852D
:1002200001A10005091901290C150025019510757A
:1002300001810205010939150025073500463B01FA
:100240007508950165148142C0C005010902A1012C
:1002500085020901A100093009311581257F358109
:10026000457F950275088106C0C005010904A101FA
:10027000A100050919012910150025019510750126
:10028000810205010901A100093009311580257F8E
:10029000950275088102C009371580257F95017583
:1002A0000881060938150026FF00950175088102AE
:1002B0000939150025073500463B0175089501658C
:1002C000148142C0C005010905A1011500250135B1
:1002D0000045017501950E05091901290E81029548
:1002E00002810105012507463B017504950165144E
:1002F0000939814265009501810126FF0046FF0012
:1003000009300932750895028102050275089503C6
:10031000150026FF0009BB09C509C88102C00501F7
:100320000905A1011500250135004501750195104C
:10033000050919012910810205012507463B0175B0
:1003400004950165140939814265009501810126F2
:10035000FF0046FF0009300931093209357508955B
:100360000481020600FF092009210922092309242A
:1003700009250926092709280929092A092B950C85
:1003800081020A21269508B102C02B0047554E0074
:100390004A4F47004E454700464C590044494700E4
:1003A00044533100445332004E2F41004E4F4E45CE
:1003B0000044533220465700505333004552524FA9
:1003C0005200484944005357495443480058494E45
:1003D000505554004D4753322F3320414E414C4F1E
:1003E000470000030C0F30333C3FC0C3CCCFF0F3C9
:1003F000FCFF0000000200090F0000030401000CD4
:1004000000000000000000000000000000000000EC
:10041000004445564943452057494C4C20524553CA
:1004200054415254004D4F44453A200053415645E3
:1004300044210A00484F4C443A2020534156450A73
:100440000050524553533A204348414E4745004FD0
:100450005554505554204D4F44450A005245464C82
:100460004558000000050720610000000000000062
:100470005F00006070787060605048506003070F44
:1004800007030305090503081C3E7F7F081C224162
:100490007F7F7F3E1C087F41221C08082A1C2A08F7
:1004A00008083E0808005030000008080808080046
:1004B0006060000020100804023E5149453E0042A1
:1004C0007F400042615149462141454B3118141289
:1004D0007F1027454545393C4A4949300171090596
:1004E000033649494936064949291E003636000077
:1004F0003C7E7E7E3C3C4242423C1414141414F078
:10050000F0F0F0F0F0909090F0324979413E7E1199
:1005100011117E7F494949363E414141227F414187
:10052000221C7F494949417F090901013E4141514E
:10053000327F0808087F00417F41002040413F0191
:100540007F081422417F404040407F0204027F7FA9
:100550000408107F3E4141413E7F090909063E41A2
:1005600051215E7F09192946464949493101017FD8
:1005700001013F4040403F1F2040201F7F201820A6
:100580007F631408146303047804036151494543ED
:1005900000007F4141020408102041417F000038E3
:1005A0003C1E0F07404040404038241209072054A9
:1005B0005454787F484444383844444420384444B0
:1005C000487F3854545418087E09010208145454C2
:1005D0003C7F0804047800447D40002040443D00F6
:1005E000007F10284400417F40007C041804787C80
:1005F0000804047838444444387C1414140808145B
:1006000014187C7C080404084854545420043F44C3
:1006100040203C4040207C1C2040201C3C4030407E
:100620003C44281028440C5050503C4464544C44E2
:10063000E0E0E0E0E000007F0000E0A0A0A0E00833
:10064000082A1C08081C2A08080006090906AC002C
:10065000198040005245424F4F54494E472E2E2E8E
:100660000000000000250028002B002E00310000B3
:10067000000000240027002A002D0030000404049C
:100680000404030405020202020403020202020639
:100690000606060606040402020204040408020117
:1006A00010408040102040804080080204018040BB
:1006B000201002011080102040402000242311242B
:1006C0001FBECFEFDAE0DEBFCDBF26E0AAEEB3E07B
:1006D00001C01D92A135B207E1F713E0A0E0B1E03F
:1006E000ECE4F9E402C005900D92AA3EB107D9F7F7
:1006F00013E0CFE5D3E004C02197FE010E94572309
:10070000CE35D107C9F70E9441180C94A4240C944B
:10071000000090E0FC01E456F94F24918358994F72
:10072000FC018491882399F090E0880F991FFC01C7
:10073000E159F94FA591B491FC01EF59F94F859119
:1007400094918FB7F894EC91E22BEC938FBF0895BE
:100750003FB7F89480912F0690913006A091310612
:10076000B091320626B5A89B05C02F3F19F001961F
:10077000A11DB11D3FBFBA2FA92F982F8827BC01FB
:10078000CD01620F711D811D911D42E0660F771F23
:10079000881F991F4A95D1F708958F929F92AF9223
:1007A000BF92CF92DF92EF92FF924B015C010E94C9
:1007B000A8036B017C010E94A8036C197D098E09B6
:1007C0009F09683E734081059105A8F321E0821AD4
:1007D0009108A108B10888EEC80E83E0D81EE11C7C
:1007E000F11C81149104A104B10429F7FF90EF904A
:1007F000DF90CF90BF90AF909F908F9008952FB7CC
:10080000F89460912B0670912C0680912D069091A2
:100810002E062FBF0895AF92BF92CF92DF92EF9234
:10082000FF920F931F93CF93DF936C017B018B019A
:10083000040F151FEB015E01AE18BF08C017D107EA
:1008400059F06991D601ED91FC910190F081E02D74
:10085000C6010995892B79F7C501DF91CF911F91C9
:100860000F91FF90EF90DF90CF90BF90AF900895E1
:10087000CF93CFB7F89480918C0581115AC04EE880
:1008800056E0FA0194912DEA36E0F9018491E92FBE
:10089000F0E0EE0FFF1FE159F94FA591B4919C9143
:1008A000982309F037C0E3E0F4E09491F901249132
:1008B000FA018491882309F42DC09923E9F091501D
:1008C0009F30D0F4E92FF0E0E859FB4F0C94572308
:1008D000A904AD047704A104A5047C047C047C0471
:1008E000B004B604BA04BE04C4047C04C8049091E5
:1008F00080009F7790938000E82FF0E0EE0FFF1FBD
:10090000EF59F94FA591B4918FB7F8949C91292B89
:100910002C938FBF81E10E9489038CB580618CBDCF
:100920008CB580648CBD8FE00E94890380E10E94B9
:10093000890380918C058F5F80938C05CFBFCF9109
:100940000895909180009F7DD5CF90918000977FF2
:10095000D1CF94B59F7794BDCFCF94B59F7DFBCF7A
:10096000909190009F7790939000C6CF90919000C7
:100970009F7DF9CF90919000977FF5CF9091C00027
:100980009F779093C000B8CF9091C0009F7DF9CF22
:100990009091C200977F9093C200AECFCF93DF9328
:1009A000EC018A85882329F081508A87DF91CF91D5
:1009B00008959C818E819817C8F78D856827E881F6
:1009C000F9810084F185E02D42E0CE0109958C810A
:1009D0008F5F8C83EBCFCF93DF93FC0187814FEF49
:1009E0005FE7813011F440E850E8262F30E0DF0166
:1009F0008BE1689FA00DB11D112450969C916185DB
:100A0000892F8370823021F1833029F0813021F5E4
:100A100080938B051BC0611111C081E080938B0511
:100A20009C70983009F46BC09C30D1F0943009F080
:100A300069C0846093E090938A051FC0623061F4BE
:100A400080918B05882341F0813021F081E0E8CF4F
:100A500080938B0582E0E4CF10928B0580E0E0CF9D
:100A6000623009F04FC090918A05992309F44AC079
:100A7000933009F442C094E0892B6BE1629FD0016E
:100A8000639FB00D1124AE0FBF1F50968C935097EB
:100A90007085CF01820F931F7130B9F1723009F464
:100AA00087C0EC01C85BDF4F6881611108C05696B2
:100AB0005C934E93559758965C934E935797865BED
:100AC0009F4FDC018C9181116AC09BE1929FD00104
:100AD000939FB00D1124AE0FBF1F5A965C934E9397
:100AE00059972F5F3F4F929FB001939F700D112434
:100AF000E60FF71F5183408352C098E0BDCF886056
:100B000094E099CF10928A05B8CF865B9F4FEC0195
:100B1000888181110FC05A965C934E935997C901F1
:100B20000196689FD001699FB00D1124AE0FBF1FC1
:100B30004D935C938BE1829FD001839FB00D112474
:100B4000AE0FBF1F50968C918C70843071F188303D
:100B500049F58FEF9FEF4BE1429FD001439FB00DCE
:100B60001124AE0FBF1F56969C938E9355975096A7
:100B70008C91837050E040E0813031F04FEF5FEFB7
:100B8000823011F04FEF5FE76BE1629FC001639F1E
:100B9000900D1124E80FF91F508F478B108ADF91B9
:100BA000CF9108958FEF9FE7D6CF90E080E0D3CF2D
:100BB000885B9F4FEC018881811108C056965C9339
:100BC0004E93559758965C934E9357978BE1829F1F
:100BD000D001839FB00D1124AE0FBF1F50968C9192
:100BE0008C70843089F1883061F58FEF9FEF4BE195
:100BF000429FD001439FB00D1124AE0FBF1F5A96E4
:100C00009C938E93599750968C918370813011F1FB
:100C10008230E9F48FEF9FEFB9016F5F7F4F4BE1B7
:100C2000469FD001479FB00D1124AE0FBF1F8D937B
:100C30009C93429FC001439F900D1124E80FF91F20
:100C4000ADCF8FEF9FE7D3CF90E080E0D0CF8FEF95
:100C50009FE7E2CF90E080E0DFCFCF93DF93DC012E
:100C600013962D913C911497C62FD0E0FC018BE197
:100C7000689FE00DF11D112461897289C9018623E5
:100C800097232817390709F04BC080898F7082306D
:100C900071F128F48130C9F190E080E021C0843006
:100CA00089F08830C9F782E018968C93108A2095D5
:100CB00030958189928928233923328B218B84E0D6
:100CC00090E00EC081E018968C93108A20953095A4
:100CD0008189928928233923328B218B82E090E00D
:100CE0009093890580938805DF91CF910895189698
:100CF0001C92108A20953095818992892823392366
:100D0000328B218B81E090E0EBCF108A20953095DB
:100D1000262337233061328B218B88E090E0E0CFAF
:100D200015964D915C9116976423752346175707C6
:100D300009F0B2CF80898F70823009F440C088F406
:100D4000813009F0A9CF19961C92108A40955095D0
:100D50008189928948235923528B418B80E290E00C
:100D6000BFCF8430D9F1883009F096CF80918805C3
:100D7000909189058115924041F01B968C911B97AB
:100D800091E089271B968C931B972BE12C9FC00128
:100D90002D9F900D1124A80FB91F50961C925097AB
:100DA0004095509551968D919C9152974823592387
:100DB00052965C934E93519780E092E091CF81E000
:100DC00019968C93108A4095509581899289482371
:100DD0005923528B418B80E490E082CF82E01996B8
:100DE0008C93108A40955095818992894823592384
:100DF000528B418B80E890E073CF8FB7F89480914D
:100E000087058FBF089584E98093BC0085E69091A3
:100E1000BC0094FF03C08150D1F7089581E008958C
:100E20006EBD00000DB407FEFDCF8EB508952A9A61
:100E3000299A8C9A83EC90E00197F1F708952A9A09
:100E4000299A469A83EC90E00197F1F708958091F2
:100E50001F068F5F823018F480931F06089581E08B
:100E6000FBCF08958DE091E0089586EC93E008951E
:100E70008CBD9DBD08958C988091850590918605C7
:100E80000E94380783EC90E00197F1F708954698A7
:100E900080918505909186050E94380783EC90E04B
:100EA0000197F1F708958F929F92AF92BF92CF92E0
:100EB000DF92EF92FF920F931F93CF93DF937C010A
:100EC0006B015A01022F10E0D0E0C0E083EC882EC5
:100ED000912CC017D107E1F0D701ED91FC9104806E
:100EE000F581E02D6AE5C114D10421F0D601AC0FE3
:100EF000BD1F6C91C7010995A114B10421F0F50142
:100F0000EC0FFD1F8083C4010197F1F72196E1CF1B
:100F1000DF91CF911F910F91FF90EF90DF90CF90D5
:100F2000BF90AF909F908F900895CF92DF92EF92F5
:100F3000FF920F931F93CF93DF937C016B01D42F0C
:100F40008C010E5F1F4F23E0A8010E945307F70199
:100F500023812F3F61F410E000E0C801DF91CF91C1
:100F60001F910F91FF90EF90DF90CF9008958481B3
:100F70008A3511F08111EFCF2F70C22FCC0FD330F3
:100F800059F0B6016D5F7F4F2DEF2D0FA7014B5F1D
:100F90005F4FC7010E9453072C2F2D1B2D5FE9F2D5
:100FA0004D2F50E0CA01820F911D8197A4F6400F8A
:100FB000511F70E060E0C7010E945307CECFCF926F
:100FC000DF92EF92FF920F931F93CF93DF93EC0189
:100FD0000E94FF036B017C01E881F9810190F0819F
:100FE000E02DCE01099544E068E573E0CE010E9452
:100FF00095078C01E881F9810280F381E02DCE0113
:1010000009950115110529F0F8018181807F803F44
:1010100011F56AE070E080E090E00E94CD030E944C
:10102000FF036C197D098E099F096B3F71058105CE
:10103000910590F2C0E062E370E080E090E00E94F1
:10104000CD038C2FDF91CF911F910F91FF90EF90E7
:10105000DF90CF900895C1E0EECF7F928F929F9264
:10106000AF92BF92CF92DF92EF92FF920F931F93B6
:10107000CF93DF93CDB7DEB729970FB6F894DEBFD5
:101080000FBECDBF7C01DC010D911C910E94FF03BE
:101090004B015C01D801ED91FC910190F081E02DB4
:1010A000C801099544E064E773E0C8010E94950710
:1010B0006C01D801ED91FC910280F381E02DC80113
:1010C0000995C114D10431F0F6018181807F803F00
:1010D00009F4EAC06AE070E080E090E00E94CD038D
:1010E0000E94FF03681979098A099B096B3F710502
:1010F0008105910578F210E062E370E080E090E015
:101100000E94CD03112309F4BBC0D7010D911C919E
:1011100089E0EFE8F3E0DE01119601900D928A95E7
:10112000E1F70E94FF034B015C01712CD801ED91A6
:10113000FC910190F081E02DC801099545E0BE01C8
:101140006F5F7F4FC8010E9495076C01D801ED9138
:10115000FC910280F381E02DC8010995CD2809F0AA
:101160007394B2E0B71588F06AE070E080E090E038
:101170000E94CD030E94FF03681979098A099B091F
:101180006B3F71058105910588F262E370E080E0B4
:1011900090E00E94CD0381E0F80181AFD7010D916D
:1011A0001C9189E0E6E8F3E0DE01119601900D92D2
:1011B0008A95E1F70E94FF034B015C01712CD80175
:1011C000ED91FC910190F081E02DC801099549E075
:1011D000BE016F5F7F4FC8010E9495076C01D80167
:1011E000ED91FC910280F381E02DC8010995CD2895
:1011F00009F07394B2E0B71588F06AE070E080E01F
:1012000090E00E94CD030E94FF03681979098A09C2
:101210009B096B3F71058105910588F262E370E0DF
:1012200080E090E00E94CD03F70100811181D80198
:10123000ED91FC910190F081E02DC801099543E00A
:101240006DE773E0C8010E9495076C01D801ED912C
:10125000FC910280F381E02DC8010995C114D104ED
:1012600051F0F6018381833031F488EB9BE0909359
:10127000A9018093A801D7018D919C910E94DF075D
:1012800029960FB6F894DEBF0FBECDBFDF91CF9188
:101290001F910F91FF90EF90DF90CF90BF90AF9094
:1012A0009F908F907F90089511E026CF0F931F930A
:1012B000CF93DF93EC01849A3E9A8C9A469AFC0174
:1012C000E654FF4F808191818E0108541F4FD80151
:1012D0008D939C932AEF30E03093A9012093A801CD
:1012E000DC01ED91FC910680F781E02D09958823C2
:1012F00081F081E0FE01E254FF4F8083D801ED913F
:10130000FC9186A1FE01E054FF4F8083C8010E943A
:101310002D0882E08093A701FE01E85BFF4F81E08A
:1013200080833296808331978083C55BDF4F8883CB
:10133000DF91CF911F910F910895EF92FF920F933C
:101340001F93CF93DF9300D000D01F92CDB7DEB7AD
:101350008C01DC019B961C929B97D8961C92D89787
:10136000ED91FC910190F081E02D0995F80181AD9E
:10137000811108C082AD803409F044C083AD813052
:1013800009F040C085E0E1E6F3E0DE01119601904E
:101390000D928A95E1F7D80196968C9196978630B2
:1013A00059F5DC968C918C8345E0BE016F5F7F4FD1
:1013B000C8010E9495077C01D801ED91FC91028043
:1013C000F381E02DC8010995E114F10441F0F70122
:1013D0008181807F803FD1F4C8010E94DF0780E0D7
:1013E0000F900F900F900F900F90DF91CF911F9162
:1013F0000F91FF90EF900895F80182AD8C8383AD3B
:101400008D83D2CF43E061E673E0D2CFD8019496CA
:101410008D919C91959793969C938E93929723810F
:10142000348195963C932E9394978181893789F4E2
:1014300083E096968C93D80196968C9196978430FB
:1014400049F110F5823009F449C08330C9F181E0D7
:10145000C7CF982F907F903719F482E0D801E9CF59
:10146000903521F484E0F80186A3E5CF833211F4AE
:1014700085E0F4CF903E11F486E0F5CF833611F489
:1014800087E0ECCF81E0EFCF863009F474C0F0F153
:101490008730E9F681E0D8019B968C939B97F70102
:1014A000858199968C93999786819A968C939A9731
:1014B000878197968C939797808598968C93C7CFC2
:1014C00081E0F80180AFF70139969C96C7014596F7
:1014D00021912D93E817F907D9F7DCCFD8968C9195
:1014E000D8978111D7CFF70181818F708B3090F21F
:1014F00081E0D8968C93D89739969C96C7014596EB
:1015000021912D938E179F07D9F7C4CF81E09B9629
:101510008C939B97F701958197969C939797D89674
:101520008C93D8978681D2968C93D2979781D396B5
:101530009C93D3974085D4964C93D49797FF05C03E
:101540003F7795963C932E93949787FF0AC0D801D6
:1015500094968D919C9195979F7B95969C938E9355
:101560009497403F08F473CFF80184A195A19B7F25
:1015700095A384A36CCF81E09B968C93F701968111
:10158000858197FD1AC087FD8FE7D80197968C93C8
:10159000D80197968C919797805897968C939797A8
:1015A000F70185819C968C939C9786819D968C9360
:1015B0009D9787819E968C934ACF813808F481E865
:1015C000F80187A3E5CFFC016093BC002FEF3FEF4C
:1015D0008091BC0087FF06C09091B900987F9083EE
:1015E00081E008952150310999F780E00895CF9363
:1015F000DF93EC016093BB0064E80E94E30A882358
:1016000029F081E09881983209F080E0DF91CF9154
:101610000895DF92EF92FF920F931F93CF93DF9382
:10162000EC01D62EF42E8989882329F0411103C0BC
:101630000E940307198A8E01015F1F4F898981115A
:1016400019C0E88864EAC8010E94E30A882361F0AF
:101650008F85883011F0803139F4EE0CE092BB00B8
:1016600064E8C8010E94E30A60E0F11060E4C80188
:101670000E94F70A6D2DC8010E94F70A82E0F81255
:101680000BC089898F5F898BDF91CF911F910F915B
:10169000FF90EF90DF9008950E940307198AF4CF1E
:1016A000DC01ED91FC910084F185E02D40E009948E
:1016B000FC012781269526952695621720F46583DF
:1016C000606B0C94500B08950F931F93CF93FC0104
:1016D0002681621798F4C62F8C0164836085C60F3B
:1016E0006C2F6F700E94500B6C2F62956F70606151
:1016F000C801CF911F910F910C94500BCF911F9166
:101700000F9108951F93CF93DF93EC01142F0E9444
:10171000640B612FCE01DF91CF911F910C94580B78
:101720002F923F924F925F926F927F928F929F92F1
:10173000AF92BF92CF92DF92EF92FF920F931F93DF
:10174000CF93DF9300D000D000D0CDB7DEB7FC013F
:10175000238534852115310509F416C19E838D83B7
:10176000F9013296649031964491E42EF12CF7E021
:10177000EF0EF11C53E0F594E7945A95E1F7E982F6
:10178000F901349654913196E4916D30F1F460E0B2
:101790000E94640B81E090E026960FB6F894DEBFBD
:1017A0000FBECDBFDF91CF911F910F91FF90EF90B2
:1017B000DF90CF90BF90AF909F908F907F906F9071
:1017C0005F904F903F902F9008956A3081F460E0D1
:1017D0008D819E810E94640BED81FE8186856581ED
:1017E0008E9D600D1124CF010E94580BD3CF651739
:1017F00008F4CAC08E2F90E0FC01E50FF11D6E17B2
:101800001F060CF0C1C089010A5F1F4F651BED81E7
:10181000FE8171855685759F502D11245C83F901D9
:1018200054912F5F3F4FF9012491352F223031051C
:1018300008F06AC06E9CC0016F9C900D1124689FD7
:10184000F001699FF00D11240E0F1F1F512CED8127
:10185000FE81F481FA83ED81FE812580F285FB8390
:10186000862C912CAA24A394B12C312C8981381672
:1018700008F086C0412CED81FE818685481608F06F
:1018800078C08B818287311002C0442041F0ED8105
:10189000FE8145814F5F6A81CF010E94820BD12C6E
:1018A000C12CC61408F058C0F801EC0DFD1D749051
:1018B000552061F0EA14FB0449F4E72DF0E0052C13
:1018C00002C0F595E7950A94E2F77E2EED81FE8140
:1018D0008685823081F4442009F43AC072948FE006
:1018E0007822E72DF0E0EE51FC4F7490672D8D814A
:1018F0009E810E94CE04672D8D819E810E94CE0420
:101900008FEFC81AD80ACDCF477028E0522E541A4C
:10191000411101C0512CF801612C30E020E0661625
:1019200031F04491240F311D63943196F8CF600E4D
:10193000712E711CF3016490E29EF001E39EF00DA4
:10194000F29EF00D11248E0F9F1F080F191F7FCFDD
:10195000F72DFF707F2EC5CFD12CEC81DE1639F02C
:1019600060E08D819E810E94CE04D394F6CF439493
:1019700082CF3394080D191DFFEFAF1ABF0A76CF3F
:10198000622D8D819E8130CF90E080E005CF0F9356
:101990001F93CF93DF938C01D0E0C0E0F801EC0FF0
:1019A000FD1F6491662341F08BE396E00E94900B4B
:1019B000892B11F02196F2CFCE01DF91CF911F91AB
:1019C0000F910895811104C08DEC93E00C94C70C25
:1019D000813019F486EC93E0F9CF823019F488EB6A
:1019E00093E0F4CF8350853018F482EC93E0EECF8F
:1019F0008CEB93E0EBCF682F8BE396E00C94900B8D
:101A00002F923F924F925F926F927F928F929F920E
:101A1000AF92BF92CF92DF92EF92FF920F931F93FC
:101A2000CF93DF935A01322E8C010D531F4F7C014F
:101A30002DEBE21A2EEFF20AC62FD0E0FE01EE0FD8
:101A4000FF1FEE53FC4F2080CC0FDD1FCC0FDD1F9E
:101A5000CD5CD94F6E01F801408051806280738067
:101A60004481658186802781A114B10459F0F50174
:101A700084A195A180959095842195219924939492
:101A8000892B09F4912C88819981AA81BB818421B9
:101A90009521A621B72131E0892B8A2B8B2B09F4C4
:101AA00030E0931202C03320D9F0911001C0822E91
:101AB0004D5F620D8BE396E00E94820B882D0E94A1
:101AC000FB0C992031F1F60180819181A281B381D3
:101AD00084299529A629B72980839183A283B3837A
:101AE000085F1F4F0E151F0509F0B5CFDF91CF918D
:101AF0001F910F91FF90EF90DF90CF90BF90AF902C
:101B00009F908F907F906F905F904F903F902F901D
:101B100008954094509460947094F601808191816E
:101B2000A281B38184219521A621B721D5CFCF925F
:101B3000DF92EF92FF920F931F93CF93DF93EC010D
:101B4000F62EC42ED22E1A868F818695869586957E
:101B5000081710F00FEF080F1D2D011780F0412F0F
:101B60006F2DCE010E94820BEF2CCE1430F06D85CC
:101B7000CE010E94CE04E394F8CF1F5FEECF4D2D2F
:101B80006F2DCE01DF91CF911F910F91FF90EF90BC
:101B9000DF90CF900C94820B0F93FC010781069588
:101BA0000695069501504681415020E060E00E9474
:101BB000970D0F910895EF92FF920F931F93CF937C
:101BC000DF937C01D62FC42FE62FF0E0EE0FFF1F2E
:101BD000EE53FC4F108107E023E04181612F8BE33E
:101BE00096E00E94970D47E0612F8BE396E00E94FC
:101BF000820BC150C73008F041C0EC2FF0E0ED5F20
:101C0000F14F0C9457232F0E2C0E0A0E320E350E68
:101C1000380E3B0E84EA93E00E94C70CF701E854AB
:101C2000FF4F0190F081E02D309739F080AD88238F
:101C300021F08AE893E00E94C70CD23048F521E0F9
:101C400050E040E06D2FC701DF91CF911F910F91C0
:101C5000FF90EF900C94000D80EA93E0DDCF8CE9CB
:101C600093E0DACF88E993E0D7CF84E993E0D4CF4B
:101C700080E993E0D1CF8CE893E0CECF8CEA93E07B
:101C8000DF91CF911F910F91FF90EF900C94C70CB3
:101C9000DF91CF911F910F91FF90EF9008950F93D7
:101CA00007E022E04FE760E08BE396E00E94970DAB
:101CB00080911F06813051F462E18BE396E00E942F
:101CC000640B84ED93E00F910C94C70C0F91089571
:101CD0008093A6016EEA81116FEA8BE396E00E9481
:101CE000500B0E94FF03609320067093210680939F
:101CF00022069093230608952F923F924F925F926F
:101D00006F927F928F929F92AF92BF92CF92DF920B
:101D1000EF92FF920F931F93CF93DF93CDB7DEB770
:101D200029970FB6F894DEBF0FBECDBF7C019C0192
:101D30002E533F4F3C832B83D9011C928091830506
:101D4000F701E254FF4F5F01285031096901811109
:101D50006BC080918405811167C0808181110CC0A6
:101D6000D9018D919C91DC01ED91FC910680F78168
:101D7000E02D0995F5018083809383058701015447
:101D80001F4FD8018C9181110EC0F701E454FF4F11
:101D900080819181DC01ED91FC910680F781E02D3D
:101DA0000995F80180838093840581E00E94680E84
:101DB00007E027E04FE760E08BE396E00E94970D95
:101DC00067E08BE396E00E94580B60E08BE396E0BF
:101DD0000E94640B81EB93E00E94C70C60E08BE3F0
:101DE00096E00E94640B8091830581110BC0809165
:101DF0008405811103C08CEA93E002C088EA93E075
:101E00000E94C70C62E48BE396E00E94640B909101
:101E1000830580918405992309F4F7C1811104C0D9
:101E200088EA93E00E94C70C21E8822E25E0922EDA
:101E300033E8632E35E0732E85015701FDE4AF0EC4
:101E4000B11C512C170128EB220E311CD6018D91AB
:101E50009D916D01F10191838083D4011D924D010B
:101E6000F30121913F012223D9F0D8012C912111B6
:101E7000D4C1DC01ED91FC910680F781E02D09953C
:101E8000882371F021E0F8012083C1010E942D0810
:101E9000D101ED91FC9146A1652DC7010E94DB0D9A
:101EA0000F5F1F4FF4E0AF0EB11C21E05212B2C120
:101EB000B12CC12C1BE190E8692E762C8091A701F2
:101EC000B81608F008C28B2D90E0F701E80FF91F53
:101ED000E254FF4F2081222309F490C1FC01EF5707
:101EE000FA4F0081002309F489C1AB81BC81DC90E9
:101EF000FC01E35AFF4FEE0FFF1FEE0DFF1D019097
:101F0000F081E02DD101ED93FC93AA24A39422A1AA
:101F100033A184A195A12817390709F4A12C96A013
:101F20004D2C512CF201E158FA4FFF83EE83808152
:101F3000981629F0492D6D2DC7010E94DB0DE1E0B7
:101F4000F0E0EC0FFD1FE40DF51D90828EEF890D82
:101F5000823008F048C1D101ED91FC9124A135A156
:101F600020953095C901B4E096958795BA95E1F72B
:101F7000817092E026FF90E0892B94E027FF90E0AB
:101F8000892B98E025FF90E0AB81BC814C91242FF8
:101F900030E0D701149FA00DB11D1124892B50965C
:101FA0008C9380AD4F01BCE28B0E911C811102C05D
:101FB000912C812C84A195A180959095BC016627D8
:101FC000707194FF02C068E070E0AC0144E0549F7F
:101FD000412D5527112441705527462B572BBC0105
:101FE0006627747092FF02C060E170E0462B572BA9
:101FF000BC016627787093FF02C060E270E0642B3A
:10200000752BAC014170552780FF02C040E051E0C4
:10201000642B752BAC014870552783FF02C040E04C
:1020200052E0462B572BBC016270772781FF02C01C
:1020300060E074E0462B572BBC016470772782FF69
:1020400002C060E078E0129FC001139F900D112440
:102050008E0D9F1D462B572BDC0152965C934E93A1
:10206000519743A5442309F410C177A189E8870F4C
:10207000833108F406C1872F60A590E0129FF0011C
:10208000139FF00D1124EE0DFF1D582F4427840FD0
:10209000951F968B858B89E8860F833108F4F3C0F2
:1020A000862F90E0129FF001139FF00D1124EE0D8A
:1020B000FF1D582F4427840F951F908F878BC901D0
:1020C000885B9E4FDC014C91F901EA5BFE4F4713A0
:1020D000E4C040814613E1C0AD82DC017C936083A3
:1020E0008114910409F4DBC0F4018581129FF00191
:1020F000139FF00D1124EE0DFF1D84A3D40117963C
:102100008C91179786A31A968C911A9781A71B9684
:102110008C9182A7129FF001139FF00D1124EE0DF8
:10212000FF1D178E10A211A212A217A210A613A2B1
:1021300015A2D1010D90BC91A02DB987A8879B96BF
:102140008C919B97A9014F5F5F4F4A01882309F447
:10215000B4C099967C9189E8870F472F833108F4A2
:1021600040E8A885B9859A966C9150E0129FF001DD
:10217000139FF00D1124EE0DFF1D942F8827840F5F
:10218000951F928F818F89E8860F833108F493C061
:10219000862F90E0189DF001199DF00D1124EE0D91
:1021A000FF1D582F4427840F951F91838083F901C9
:1021B000EC5BFE4F8081D901AE5BBE4F871304C03C
:1021C0008C91861301C00D8170836C93002359F0AC
:1021D000B1E0BD1540F0F1014081518120E06D2D4D
:1021E000C7010E94000DE1E0F0E0EC0FFD1FE40DDF
:1021F000F51D8081AE81BF818C93CA28EB81FC8163
:1022000080818F5F8083B39459CE811107CE8CEA91
:1022100093E008CE5524539419CEFC0146A01296A3
:102220008C91841519F0C1010E942D08F801428299
:10223000D101ED91FC91D50112969C91129781AD3F
:102240008823B1F02C9181E0911101C080E081954B
:1022500082AF23AFD1018D919C910E949D09F40121
:102260003197808381111CCEF801108240E014CE9A
:10227000992321F0B0E4B2AF21E0EBCF12AE13AE60
:10228000E9CF80E8F9CE80E80CCFFC01768A658A38
:10229000708E678A60E870E812CF0D831ECF129FA0
:1022A000F001139FF00D1124EE0DFF1D14A216A2D4
:1022B00011A612A62FCF80E86CCF728E618E149F6C
:1022C000F001159FF00D1124EE0DFF1D718260824B
:1022D00060E870E86CCF8C2D29960FB6F894DEBFBD
:1022E0000FBECDBFDF91CF911F910F91FF90EF9067
:1022F000DF90CF90BF90AF909F908F907F906F9026
:102300005F904F903F902F90089590E080E0089567
:10231000FC0180913D0590913E0586179707A0F03E
:102320006115710529F49091E8009E779093E8007B
:1023300090E06115710551F4911108C08091E80099
:1023400082FF35C080E00895BC01F2CF80911B066A
:102350008823C9F18530C9F18091E80083FD31C03F
:102360008091E80082FDEACF8091E80080FFE1CF14
:102370002091F3008091F200322F282F6115710512
:1023800019F02034310558F091E02034310509F07E
:1023900090E02091E8002E772093E800CACF819149
:1023A0008093F100615071092F5F3F4FE7CF80911B
:1023B0001B06882341F0853041F08091E80083FFBF
:1023C000BDCF81E0089582E0089583E008952091D3
:1023D000E4003091E50085E69091EC0090FF06C0A6
:1023E0009091E80090FF06C080E008959091E80089
:1023F00092FDFACF90911B06992391F0953091F0C0
:102400009091EB0095FD10C04091E4005091E500E3
:102410002417350709F381509A01F1F684E00895F5
:1024200082E0089583E0089581E008958091370562
:1024300087FF13C08091E80082FF06C08091E8000A
:102440008B778093E80004C080911B068111F2CF46
:10245000089580911B068823D9F38091E80080FFBE
:10246000F8CF8091E8008E77ECCF982F973028F046
:102470008F708093E90081E008959093E900242F04
:10248000762F50E0981731F07091EC002091ED001C
:102490005091F00021FD02C09F5FE8CF3091EB002A
:1024A0003E7F3093EB003091ED003D7F3093ED00A7
:1024B0003091EB0031603093EB007093EC0020938F
:1024C000ED005093F0002091EE0027FDE5CF80E075
:1024D000089542E050E06FEC73E08BE396E00C94DB
:1024E0000B04CF93DF930E94C70CEC010E9469128A
:1024F0008C0F9D1FDF91CF9108950E948224EF924F
:10250000FF920F931F93CF93DF9300D0CDB7DEB729
:1025100080911B06882309F4DDC08091E9008F704B
:102520009091EC0090FF4DC090E8F92EF82A10929F
:10253000E9008091E80083FFC9C0E7E3F5E08FE39D
:1025400095E02091F10021938E179F07D1F780919C
:1025500038058130D9F480913705813AB9F48091FA
:10256000E800877F8093E8008091390590913A05D3
:102570008115934041F568E070E080E091E00E94B1
:1025800088118091E8008B778093E8008091E800C3
:1025900083FF8EC080913705909138059A3008F0FE
:1025A00087C0E92FF0E0E952FD4E0C9457232B131E
:1025B0005113581351135813B213D41358135516FB
:1025C000621690E0B2CFE0911A06E830D0F6F0E063
:1025D000E451FD4E0C945723F412F912FE1203132A
:1025E00008130D131213261364E170E087E394E0DF
:1025F000C6CF60E470E084E294E0C1CF60E470E0B4
:1026000081E194E0BCCF60E470E085E094E0B7CF76
:1026100060E470E08DEF93E0B2CF60E470E086EFAD
:1026200093E0ADCF81E08093F20382E08093EF03EB
:1026300080913B0590913C0560E470E0892B19F492
:1026400082EF93E09CCF8FEE93E099CF60E470E04F
:102650008AEE93E094CF803889F0823849F58091F2
:102660003B058F70873020F58093E9008091EB0067
:1026700085FB882780F91092E90004C080918D05C0
:1026800081110DC09091E800977F9093E8008093AE
:10269000F1001092F1008091E8008E7732C082E064
:1026A000F1CF282F2D7F21F48823E9F0823071F1BA
:1026B0008091E80083FF0AC08091E800877F8093C3
:1026C000E8008091EB0080628093EB008F2D8F708B
:1026D0008093E9000F900F90DF91CF911F910F91A0
:1026E000FF90EF90089580913905813009F793307C
:1026F00009F080E080938D051092E9008091E80058
:10270000877F8093E8000E941612D2CF809139050E
:102710008111F2CF80913B058F702FEF280F26306B
:1027200038F68093E9002091EB0020FFE5CF93304D
:1027300031F48091EB0080628093EB00DDCF9091CB
:10274000EB0090619093EB0021E030E001C0220F9C
:102750008A95EAF72093EA001092EA008091EB0054
:102760008860EACF8111A4CF109139051F7780913D
:10277000E3008078812B8093E3008091E800877FDD
:102780008093E8000E9416128091E80080FFFCCF41
:102790008091E30080688093E30083E0111101C021
:1027A00082E080931B0684CF8058823008F080CF6F
:1027B0002091390530913A051A821982832F992781
:1027C0008330910509F46AC1D0F481309105A9F1F3
:1027D000029709F463C069817A816115710509F472
:1027E00067CF8091E800877F8093E800C8010E944E
:1027F00088118091E8008B778093E80059CF81326F
:10280000910509F4EDC1829731F780911A06853060
:1028100009F435C208F009C2813009F416C28430C7
:1028200009F422C244E450E06EE971E081EA94E0E8
:102830000E94382384E490E012C280911A0681300D
:1028400019F198F0823029F10091930510919405C7
:1028500042E150E065EC70E08BE494E00E943823A4
:10286000009357041093580408C042E150E06BEF06
:1028700070E08BE494E00E94382382E190E09A8338
:1028800089830BE414E0A7CF42E150E069EE70E0E9
:10289000F0CF42E150E067ED70E0EBCF1091920590
:1028A00000911A06013009F459C008F450C00230F2
:1028B00009F499C0063009F4DBC00450043008F074
:1028C000E6C0E02FF0E0EA5CFC4F008149E050E018
:1028D00066E271E08DE594E00E94382389E1189F5B
:1028E000802D1124875F80935F041093610411236E
:1028F00009F4CFC049E150E06DE071E086E694E074
:102900000E943823109268040093760481E8809333
:102910007A04123008F4BDC049E150E06DE071E086
:102920008FE794E00E94382381E080938104009334
:102930008F0482E880939304123009F4AAC049E11D
:1029400050E06DE071E088E994E00E94382381E373
:1029500090E09A83898305E013E03DCF49E050E0A1
:102960006CE871E08DE594E00E94382389E1189FBE
:10297000802D1124875F80935F04109361041123DD
:1029800061F149E150E063E771E086E694E00E947E
:102990003823109268044CE6E42EE092760481E835
:1029A00080937A041230C8F049E150E063E771E0A7
:1029B0008FE794E00E94382300938104E0928F0413
:1029C00082E880939304123041F049E150E063E7DC
:1029D00071E088E994E00E943823A9E11A9FC001C0
:1029E000112409964FC049E050E06AE671E08DE598
:1029F00094E00E94382389E1189F802D1124875F7D
:102A000080935F0410936104112369F149E150E060
:102A100061E571E086E694E00E9438231092680434
:102A200080E78093760481E880937A041230D8F0AE
:102A300049E150E061E571E08FE794E00E943823BE
:102A400081E08093810480E780938F0482E8809303
:102A50009304123041F049E150E061E571E088E90A
:102A600094E00E943823B9E11B9FC0011124B9CF23
:102A700042E250E06FE271E08DE594E00E9438237D
:102A800082E290E09A8389830DE514E0A4CE04E409
:102A90001DCFE9E11E9FC0011124A3CFC9019927D1
:102AA0008230910549F18330910509F441C08130AC
:102AB000910509F04AC080911A06813089F444E3F7
:102AC00051E0DA010D900020E9F7AD014553514086
:102AD00064E371E0CE0101960E9413188C017BCE55
:102AE00047E251E0FA0101900020E9F7AF014852B6
:102AF000514067E271E0EECF80911A06813061F4B7
:102B000045E151E0DA010D900020E9F7AD014651B1
:102B1000514065E171E0DECF48E051E0FA010190FB
:102B20000020E9F7AF014950514068E071E0D2CF91
:102B30006091900570919105FB0101900020E9F7EB
:102B40003197AF01461B570BC5CF63E073E0E1E05F
:102B5000222331F1253039F52AE433E0E0E0FCE0CE
:102B6000FE0FD9011D919D018E2F90E0019670E01E
:102B700060E0412F42954F7050E04E525C4FDA01B9
:102B80004C91DC014C93EE5F90E0A12FAF70B0E070
:102B9000AE52BC4F4C91DC0111964C93EF13E1CF38
:102BA0004E2F50E097CF20911A06880F991F2223AD
:102BB00029F0213049F0865C9C4F02C0805B9C4F1D
:102BC000FC016081718105C08E5B9C4FDC016D91C1
:102BD0007C91FB0101900020E9F73197E61BE0CFE3
:102BE00010911A0649E050E065E971E088E994E047
:102BF0000E9438238BE5153079F040F48CE61130D3
:102C000059F089E5143041F084E406C081E51630BE
:102C100019F087E31730C1F780939F0489E090E0B3
:102C20009A83898308E914E0D6CD863099F18730FC
:102C300009F0F8CD47E350E062EE71E081EA94E0FC
:102C40000E94382387E390E00AC04CE650E06EE132
:102C500073E081EA94E00E9438238CE690E09A8346
:102C6000898301EA14E0B7CD49E550E065EC72E0F4
:102C700081EA94E00E94382389E590E0F0CF4BE5AB
:102C800050E06AE672E081EA94E00E9438238BE526
:102C900090E0E5CF41E550E069E172E081EA94E03F
:102CA0000E94382381E590E0DACF803809F000CD2A
:102CB0008091E800877F8093E80080918E05809363
:102CC000F100E9CC8111F4CC10913905123008F0F3
:102CD000EFCC8091E800877F8093E80010938E0509
:102CE0000E9416121123F9F084E080931B060091D4
:102CF0001A060023F1F042E360EC82E00E943512F4
:102D000011E080919205811708F4D2CC812F8F7049
:102D1000873020F442E361EC0E943512063009F45A
:102D2000C7CC1F5FEECF8091E30087FDDDCF81E050
:102D3000DCCF42E261EC81E00E94351246E260ECB9
:102D400082E00E943512B4CC0F931F93CF93DF9390
:102D50008C01EB018091E80085FD10C08091E800B6
:102D60008B778093E8000E947F120E94E7118823EE
:102D700089F3DF91CF911F910F9108958091F10018
:102D8000F80181938F01219729F780E0F2CF1F92FC
:102D90000F920FB60F9211242F933F938F939F930F
:102DA000AF93BF9380912B0690912C06A0912D0696
:102DB000B0912E0630912A0623E0230F2D3758F5C7
:102DC0000196A11DB11D20932A0680932B06909396
:102DD0002C06A0932D06B0932E0680912F0690917D
:102DE0003006A0913106B09132060196A11DB11DA9
:102DF00080932F0690933006A0933106B09332064D
:102E0000BF91AF919F918F913F912F910F900FBEE6
:102E10000F901F90189526E8230F0296A11DB11D53
:102E2000D2CF1F93CF93DF93EC0180E88FA388A7C5
:102E300089A78AA71BA6FE01BC968CE0DF011D9224
:102E40008A95E9F71EA219AE1AAE1BAE1CAE15E0AC
:102E5000CE010E949D0961E070E080E090E00E9458
:102E6000CD031150A9F7CE01DF91CF911F910C94A2
:102E70009D09CF93DF93EC01849A8C9A229A2A9A27
:102E8000219A299A23982B982B9A0E943804CE01D4
:102E9000DF91CF910C941117CF93DF93EC013E9A01
:102EA000469A229A2A9A219A299A23982B982B9A01
:102EB0000E943804CE01DF91CF910C9411171F921C
:102EC0000F920FB60F9211242F933F934F935F935E
:102ED0006F937F938F939F93AF93BF93EF93FF93E2
:102EE0008091DA0080FF17C08091D80080FF13C066
:102EF0008091DA008E7F8093DA008091D90080FF84
:102F000086C080E189BD82E189BD09B400FEFDCFA4
:102F100081E080931B068091E10080FF17C08091C3
:102F2000E20080FF13C08091E2008E7F8093E20078
:102F30008091E20080618093E2008091D8008062FD
:102F40008093D80019BC85E080931B068091E10036
:102F500084FF26C08091E20084FF22C080E189BD09
:102F600082E189BD09B400FEFDCF8091D8008F7D3C
:102F70008093D8008091E1008F7E8093E100809162
:102F8000E2008F7E8093E2008091E2008160809376
:102F9000E20080918E058823F1F184E080931B0686
:102FA0008091E10083FF22C08091E20083FF1EC078
:102FB0008091E100877F8093E10082E080931B068F
:102FC00010928E058091E1008E7F8093E1008091C8
:102FD000E2008E7F8093E2008091E2008061809326
:102FE000E20042E360E080E00E943512FF91EF9141
:102FF000BF91AF919F918F917F916F915F914F9111
:103000003F912F910F900FBE0F901F90189519BCF4
:1030100010921B0680CF8091E30087FD02C081E003
:10302000BDCF83E0BBCFCF93DF93DC0140325105AE
:1030300014F04FE150E090E0292F30E024173507DD
:1030400084F04F5F5F4F440F551F4D935C93536067
:103050005093400540933F058FE395E0DF91CF917A
:103060000895F901EE0FFF1FEF5BFA4F260F371F90
:10307000E9012881022E000C330B318320839F5FEE
:10308000DBCFCF93DF93CDB7DEB72A970FB6F89497
:10309000DEBF0FBECDBF789484B5826084BD84B599
:1030A000816084BD85B5826085BD85B5816085BD43
:1030B00080916E00816080936E00109281008091FB
:1030C0008100826080938100809181008160809383
:1030D00081008091800081608093800080919100C8
:1030E0008260809391008091910081608093910033
:1030F000809190008160809390008091C1008460F5
:103100008093C1008091C10082608093C100809152
:10311000C10081608093C1008091C3008160809371
:10312000C3008091C00082608093C0008091C20083
:1031300081608093C20080917A00846080937A00DD
:1031400080917A00826080937A0080917A00816019
:1031500080937A0080917A00806880937A005698F4
:103160005E9A90E080E00E944123823008F0F0C037
:1031700080931F06F0901F0621E0F212B3C08BE986
:1031800091E00E945D238C01DC0112961C92129743
:1031900080E093E014969C938E93139780E09CE0DC
:1031A00016969C938E93159717961C9217971896C0
:1031B0001C9218971996FC92F801709686E3DF012D
:1031C0001D928A95E9F78FEF9FE7F801968B858B23
:1031D000908F878B928F818F948F838F91AB80ABF1
:1031E00093AB82AB95AB84AB97AB86ABEA5BFF4FFF
:1031F00011821082329611821082329611821082D0
:10320000329628E0DF011D922A95E9F73896108260
:1032100031961082128211821482138296838583E2
:103220009087878392878187948783871586168600
:103230001786108A118A128A138A148A158A168AA6
:10324000178A108E118E128E84EB93E0F801918311
:10325000808381E490E00E945D23F1E4FF2EDC0195
:10326000EF2D1D92EA95E9F728EA33E0DC012D9372
:103270003C93F801E654FF4F9183808381E490E012
:103280000E945D23FC011192FA94E9F72CE933E0E6
:10329000DC012D933C93F801E454FF4F918380832C
:1032A00032961082319610823196108231961082B9
:1032B00031961082D801AD53BF4F80E8E0EBF1E0CA
:1032C00001900D928A95E1F7D801AD5BBE4F88E57C
:1032D000E0E3F2E001900D928A95E1F71093250664
:1032E0000093240610924C068CE380934B061092B8
:1032F000B90084E48093BC008CE08093B800109205
:103300003F0610924006EEE4F6E0C590D490E0E56A
:10331000F6E0F490E1E5F6E0E491E0934106E2E5C1
:10332000F6E0E491E0934206E3E5F6E0E491E09311
:10333000430610E000E00F1568F4F601E00FF11FFE
:1033400064918BE396E00E94500B0F5F1F4FF3CF09
:1033500081E00ECF8BE396E00E94CC0D61E88BE319
:1033600096E00E94500B61E08BE396E00E94500BC8
:10337000E3E6F4E0F0934706E09346068491E4E642
:10338000F4E0E491F82F319709F0DAC01092440686
:103390008BE396E00E94CC0D11E0109349066EE19C
:1033A0008BE396E00E94640B82E0809349068CE5F3
:1033B00094E00E94C70C1093490662E08BE396E00C
:1033C0000E94580B0E944F0E81E090E00E94412322
:1033D000883008F080E0A0912406B0912506179669
:1033E0008C931797ED91FC9111970190F081E02D4E
:1033F000CD01099564E170E080E090E00E94CD038A
:103400008091240690912506DC01ED91FC910280CB
:10341000F381E02D099564E170E080E090E00E9486
:10342000CD038091240690912506DC01ED91FC915D
:103430000280F381E02D0995809124069091250664
:1034400023E0FC0127834E999FC08BE396E00E9406
:10345000CC0D45E050E063EE73E08BE396E00E9414
:103460000B040E9469126CED75E080E090E00E9410
:10347000CD038BE396E00E94CC0D8FE494E00E9494
:10348000711281E494E00E94711284E394E00E943E
:10349000711264EF71E080E090E00E94CD0381E062
:1034A000812C912C540101E013E0FF24F3944E99F8
:1034B0004BC0F12C813051F40E94FF034B015C01A1
:1034C00060E170E080E090E00E94CD030E94FF0385
:1034D000681979098A099B09693E7340810591053C
:1034E00010F40C941F238BE396E00E94CC0D8CE229
:1034F00094E00E94711285E294E00E94C70C812F33
:103500000E94E20C0E9469120E94691281E194E01B
:103510000E94C70C60ED77E080E090E00E94CD0350
:10352000612F81E090E00E94492388E19EE00FB680
:10353000F894A895809360000FBE90936000FFCF31
:1035400081E08093440624CF81110C941C2360E118
:1035500070E080E090E00E94CD0381E0011106C0A0
:10356000882379F01F5F183008F010E007E025E0AD
:103570004FE760E08BE396E00E94970D812F0E9459
:10358000E20C00E08F2D91CF0190F081E02D0484BA
:10359000F585E02D099561E08BE396E00E94580BDC
:1035A00060E08BE396E00E94640BE0912406F091CA
:1035B00025068781811100C188E50E94FB0C80915E
:1035C00024069091250621E032E0FC013483238318
:1035D0000190F081E02D0084F185E02D09958C01AA
:1035E0008091240690912506DC01ED91FC910284E6
:1035F000F385E02D09952091A701E0912406F09133
:103600002506378130931A0690939405809393058D
:1036100020939205109391050093900584B7877FBE
:1036200084BF0FB6F894A89580916000886180935C
:103630006000109260000FBE80E830E020E00FB61E
:10364000F89480936100209361000FBE8091D800B0
:103650008F7E8093D8008091D70081608093D700BF
:1036600084E082BF81E080938F058091D8008E7FB7
:103670008093D8001092E2001092DA001092E100DC
:103680008091D8008F778093D8008091D80080688F
:103690008093D8008091D8008F7D8093D80019BC8A
:1036A00010921B0610928E0510928D058091E000FD
:1036B0008B7F8093E0008091D80081608093D80058
:1036C00042E360E080E00E9435128091E1008E7F4D
:1036D0008093E1008091E20081608093E20080911C
:1036E000E20088608093E2008091E0008E7F80930A
:1036F000E0008091D80080618093D80078940E9487
:10370000A8030091260610912706209128063091E3
:103710002906AB01BC01401B510B620B730B80915E
:10372000A8019091A901B0E0A0E0C12C4817590769
:103730006A077B07B0F08091240690912506DC0192
:10374000ED91FC910280F381E02D0995C82E0E9435
:10375000A80360932606709327068093280690930B
:103760002906D12C8091A701D81608F0DDC68091DA
:10377000240690912506DC01ED91FC910680F781ED
:10378000E02D6D2D09950091240610912506ED2C54
:10379000F12CF8018781883008F03EC0E82FF0E076
:1037A000EC52F44E0C945723EF1B0E1C0E1C0C1CF9
:1037B000011C031C051C0A1C813011F483E5FDCE9D
:1037C000823011F480E5F9CE833011F488E4F5CE2F
:1037D0008450843010F48DE4F0CE85E4EECE34E1F4
:1037E000883008F040C5E82FF0E0E750F44E0C9424
:1037F0005723101C4D1DA11E33213A1FD81F6220D4
:10380000052138E0EDCF37E0EBCF34E0DD2041F3A8
:1038100033E0E6CF35E0E4CF3CE0E2CF33E1E0CF88
:103820008BE18E9DF0018F9DF00D1124E00FF11FB3
:103830008089282F217092E081FF90E0292B94E06D
:1038400082FF90E0292B83FF14C188E0282B8BE1B5
:103850008E9DF0018F9DF00D1124E00FF11F8189E5
:10386000928940E191FF40E0242B40E290FF40E04C
:10387000242B40E492FF40E0242B40E893FF40E0FB
:10388000242B20934C01AC01E4E056954795EA9532
:10389000E1F7417022E085FF20E0242B44E094FF13
:1038A00040E0242B40E180FF40E0242B40E281FFF8
:1038B00040E0242B40E482FF40E0242B40E883FFDB
:1038C00040E0242B20934D012BE12E9DF0012F9DF4
:1038D000F00D1124E00FF11F45895689505850937F
:1038E0005101409350014FEF5FE76789708DDA0116
:1038F000A61BB70BB0935301A0935201618D728D3B
:1039000070587093550160935401B7016F5F7F4FFA
:10391000269FD001279FB00D1124A00FB11F6D91DC
:103920007C91461B570B5093570140935601D80189
:10393000AE0DBF1DAA5BBF4F2C91222309F49BC083
:10394000858D80934E01868D80934F018AE491E0AE
:1039500090931E0680931D0630931C0680911B06D3
:10396000843009F07AC082E08093E9008091E80019
:1039700082FF30C08091E80085FF27C080911A0641
:103980008111A5C50E94E711811108C050E040E0F7
:1039900068E070E0CE0101960E94A4168981811131
:1039A00014C08A81883089F4C701880F991F880F55
:1039B000991F080F191FF801E35BFF4F8C8180836B
:1039C000015B1F4F8D81F80180838091E8008B7728
:1039D0008093E800870186E0000F111F8A95E1F7C8
:1039E00006561A4F40911C0650E060911D067091DA
:1039F0001E06C8010E948724892B79F180911A063E
:103A0000863009F071C581E08093E9008091E8007B
:103A100080FF23C0E0901C06A0901D06B0901E06FB
:103A20000E94E711F12C882309F471C58091E80008
:103A30008E778093E800E0901C06F12CA0901D0684
:103A4000B0901E06A701B501C8010E949424A701E9
:103A500070E060E0C5010E949D240E947F12E09109
:103A60002406F09125068781882309F45DC5D39447
:103A700079CE80E0EBCEAC0166E0569547956A952D
:103A8000E1F74170419540934E01880F892F881FBF
:103A9000990B91958170819557CF8BE18E9DF001A7
:103AA0008F9DF00D1124E00FF11F2089E22FEF70A0
:103AB000E150EA3008F036C1F0E0EF59F24E0C94D4
:103AC00057236B1D8A1E921E8E1E901E8C1E921EE8
:103AD000861E821E881E109260018BE18E9DF00171
:103AE0008F9DF00D1124E00FF11F81899289FC0157
:103AF000E170FF27FA87E987E2E0F0E080FD02C08D
:103B0000F0E0E0E0BC0162707727A4E0B0E081FD66
:103B100002C0B0E0A0E01C013694279436942794AC
:103B2000422D4170242EAF0142294A2B5B2BFC0110
:103B3000E870FF27A8E0B0E083FD02C0B0E0A0E09D
:103B40004A2B5B2B5C01A0E1AA22BB24A0E1B0E0E0
:103B500084FD02C0B0E0A0E04A2B5B2B4C01B0E238
:103B60008B229924A0E2B0E085FD02C0B0E0A0E085
:103B70004A2B5B2B3C01A0E46A227724A0E4B0E04E
:103B800086FD02C0B0E0A0E0A42BB52B2C0140E8DC
:103B90004422552440E850E087FD02C050E040E058
:103BA000A42BB52BAC014427517090FF02C040E01C
:103BB00051E0A42BB52BAC014427527091FF02C0F9
:103BC00040E052E0A42BB52BAC014427547092FF87
:103BD00002C040E054E0A42BB52BAC014427587040
:103BE00093FF02C040E058E0A42BB52BAC01442762
:103BF000507194FF02C040E050E14A2B5B2BDC0186
:103C0000AA27B07295FF02C0A0E0B0E24A2B5B2B5E
:103C100050935F0140935E014BE1342E3E9CD001F6
:103C20003F9CB00D1124A00FB11F56968C91569752
:103C30008093610158968C915897809362015A96AF
:103C40008C9180936301A7014F5F5F4F349EC00149
:103C5000359E900D1124800F911FDC0111968C91DF
:103C600080936401822F8870819580936501822FF3
:103C70008470819580936601822F817081958093F5
:103C80006701227021952093680181E0EF2B09F4F0
:103C900080E081958093690181E0672B09F480E0E1
:103CA000819580936A018985819580936B01422D6E
:103CB000419540936C0181E0AB2809F480E0819547
:103CC00080936D0181E0892809F480E081958093DB
:103CD0006E01F801EE0DFF1DEA5BFF4F8081882326
:103CE00019F18BE18E9DF0018F9DF00D1124E00FF5
:103CF000F11F858D80936F01868D809370018EE515
:103D000091E026CE81E080936001E7CE82E0FBCF98
:103D100083E0F9CF84E0F7CF85E0F5CF86E0F3CFFD
:103D200087E0F1CF88E0EFCF81E0672809F480E0F9
:103D3000819580936F0181E0452809F480E08195A9
:103D4000DCCF8BE18E9DF0018F9DF00D1124E00FF3
:103D5000F11FE089EF70E150EA3008F089C0F0E02F
:103D6000EC54F14E0C945723BE1E301F381F341FE5
:103D7000361F321F381F2C1F281F2E1F1092730151
:103D80002BE12E9DF0012F9DF00D1124E00FF11F6E
:103D900092898091720190FB80F991FB81F992FBED
:103DA00082F993FB83F994FB84F9809372018689ED
:103DB00080937401808D80937501828D809376014C
:103DC000C7010196289FD001299FB00D1124A00F93
:103DD000B11F11968C9180937701878D8093780124
:103DE00080A18093790181A180937A0182A180933F
:103DF0007B01B3A1B0937C01A4A1A0937D0175A127
:103E000070937E0166A160937F0157A1509380015A
:103E100040A54093810121A52093820192A5909312
:103E2000830180917101B7FB83F9A7FB82F977FBCE
:103E300081F967FB80F957FB84F947FB85F927FB7C
:103E400086F997FB87F98093710181E791E080CD36
:103E500081E08093730194CF82E0FBCF83E0F9CFC0
:103E600084E0F7CF85E0F5CF86E0F3CF87E0F1CFB0
:103E700088E0EFCF8BE18E9DF0018F9DF00D112436
:103E8000E00FF11FE089EF70E150EA3008F08EC0DA
:103E9000F0E0E35BF04E0C945723571FCE1FD61F64
:103EA000D21FD41FD01FD61FCA1FC61FCC1F1092EF
:103EB00086019BE19E9DF0019F9DF00D1124E00F76
:103EC000F11F418952898091840140FB81F9BA0137
:103ED0007695679560FB82F9DA01B695A795B69558
:103EE000A795BA01B3E076956795BA95E1F7A0FB7F
:103EF00080F960FB83F9BA0124E0769567952A95ED
:103F0000E1F760FB84F9BA01A5E076956795AA957B
:103F1000E1F760FB85F9BA01B6E076956795BA9549
:103F2000E1F760FB86F9BA01660F672F661F770B12
:103F3000719560FB87F9809384018091850150FB26
:103F400080F951FB81F952FB82F953FB83F954FB51
:103F500084F980938501868980938701208D209341
:103F60008801228D20938901A7014F5F5F4F949FA5
:103F7000F001959FF00D1124E00FF11F91819093B6
:103F80008A0180938B0184E891E0E2CC81E0809308
:103F900086018FCF82E0FBCF83E0F9CF84E0F7CFBB
:103FA00085E0F5CF86E0F3CF87E0F1CF88E0EFCF73
:103FB0008BE18E9DF0018F9DF00D1124E00FF11F1C
:103FC000E089EF70E150EA3008F07AC0F0E0E551A6
:103FD000F04E0C945723F51F582060205C205E2083
:103FE0005A206020542050205620109292018BE1DC
:103FF0008E9DF0018F9DF00D1124E00FF11F41897E
:10400000528980918D0140FB86F9BA0176956795BA
:1040100060FB85F9BA01769567957695679560FBA3
:1040200087F9BA0193E0769567959A95E1F760FB79
:1040300084F9BA0124E0769567952A95E1F760FB4B
:1040400082F9BA01A5E076956795AA95E1F760FB3C
:1040500083F9DA0196E0B695A7959A95E1F7BA014A
:10406000660F672F661F770B7195A0FB80F960FBC9
:1040700081F980938D0180918C0150FB82F951FB75
:1040800083F952FB80F953FB81F980938C01858978
:10409000809391018389809390018CE891E058CCC2
:1040A00081E080939201A3CF82E0FBCF83E0F9CF40
:1040B00084E0F7CF85E0F5CF86E0F3CF87E0F1CF5E
:1040C00088E0EFCFD11094C081E080939301D801B4
:1040D0005096EC91EF70E150EA3008F084C0F0E0C7
:1040E000EC58FF4D0C9457237E20EB20F320EF205B
:1040F000F120ED20F320E720E320E9201092960143
:10410000F80141895289CA018170992762E070E003
:1041100041FD02C070E060E0862B972B60E170E00B
:1041200042FD02C070E060E0862B972B68E070E0F3
:1041300043FD02C070E060E0862B972B60E470E0E6
:1041400044FD02C070E060E0862B972B60E870E0D1
:1041500045FD02C070E060E0862B972B60E071E0C7
:1041600046FD02C070E060E0862B972B60E072E0B5
:1041700047FD02C070E060E0862B972B60E074E0A2
:1041800050FD02C070E060E0862B972B60E078E085
:1041900051FD02C070E060E0862B972B60E070E27A
:1041A00052FD02C070E060E0862B972B53FF1DC0CC
:1041B00040E050E4842B952B9093950180939401DB
:1041C00083E991E0C5CB81E08093960199CF82E0AD
:1041D000FBCF83E0F9CF84E0F7CF85E0F5CF86E031
:1041E000F3CF87E0F1CF88E0EFCF50E040E0E2CFBF
:1041F00082E08093A301D80153968C918093A4010F
:104200001092A50183EA91E0A3CB8BE18E9DF00192
:104210008F9DF00D1124E00FF11F41895289BA01E1
:104220006170772782E041FF80E0862B94E042FFB7
:1042300090E0892B809395058BE18E9DF0018F9DF9
:10424000F00D1124E00FF11F858996899093970551
:10425000809396058789908D909399058093980512
:1042600085E995E075CB8BE18E9DF0018F9DF00D7A
:104270001124E00FF11FE089EF70E150EA3008F0FF
:1042800021C1F0E0EA5BFE4D0C94572350215A22E5
:1042900062225E2260225C22622256225222582230
:1042A00010929A018BE18E9DF0018F9DF00D1124EB
:1042B000E00FF11F41895289BA016170772788E0C8
:1042C00090E043FD02C090E080E0862B972B60E4F5
:1042D00070E044FD02C070E060E0862B972B60E840
:1042E00070E045FD02C070E060E0862B972B60E037
:1042F00074E050FD02C070E060E0862B972B60E018
:1043000078E051FD02C070E060E0862B972B60E002
:1043100070E252FD02C070E060E0862B972B60E0F7
:1043200070E453FD02C070E060E0862B972B54FFD1
:10433000CBC040E050E1842B952B2BE12E9DF0016A
:104340002F9DF00D1124E00FF11F4389548964E083
:1043500070E040FD02C070E060E0862B972B60E2C9
:1043600070E041FD02C070E060E0862B972B092EC3
:10437000000CAA0B612C60E8762E812C42FD03C054
:10438000612C712C812C86299729A829612C712CEC
:104390008824839443FD03C0612C712C812C8629D1
:1043A0009729A829612C712CB2E08B2E44FD03C003
:1043B000612C712C812C86299729A829612C712CBC
:1043C000F4E08F2E45FD03C0612C712C812C8629D1
:1043D0009729A829612C712CE8E08E2E46FD03C098
:1043E000612C712C812C86299729A829612C712C8C
:1043F00070E1872E47FD03C0612C712C812C86292A
:104400009729A829612C712C60E2862E50FD03C0EB
:10441000612C712C812C86299729A829612C712C5B
:10442000812C51FF04C0612C712C40E4842E86291C
:104430009729A8298093970190939801A0939901B7
:104440008BE18E9DF0018F9DF00D1124E00FF11F87
:10445000968990939B01908D90939C01928D90935F
:104460009D01A7014F5F5F4F849FD001859FB00DD5
:104470001124A00FB11F11968C9180939E0184A1ED
:10448000809580939F0186A180958093A00181A54E
:1044900080958093A10182A580958093A20187E9F0
:1044A00091E056CA81E080939A01FCCE82E0FBCF76
:1044B00083E0F9CF84E0F7CF85E0F5CF86E0F3CF56
:1044C00087E0F1CF88E0EFCF50E040E034CF0E94AA
:1044D000E71181117ACA50E040E067E070E0CE0158
:1044E00001960E94A41671CA81E08D0D8F708CCA4E
:1044F0008091E80085FD0FC08091E8008E77809361
:10450000E8000E947F120E94E71181118FCAE11416
:10451000F10471F78BCAD5018D915D018093F10093
:10452000B1E0EB1AF108F3CF0E94FF034B015C01ED
:10453000CC2039F08091A601811135C081E00E9424
:10454000680E8091A6018823B9F080912006909191
:104550002106A0912206B0912306881A990AAA0A78
:10456000BB0AE0EC8E16E4ED9E06E1E0AE06B10477
:1045700018F080E00E94680E4E990DC06CE271E068
:1045800080E090E00E94CD038091A601811114C0CB
:1045900081E00E94680E80E090E0892B09F4AFC8AA
:1045A0000E940000ACC88092200690922106A09242
:1045B0002206B0922306C5CFF0901F060E9427075F
:1045C0000E944F0E10E000E062E070E080E090E0BA
:1045D0000E94CD034E990CC06CE271E080E090E047
:1045E0000E94CD030E9427070E944F0E10E000E0BA
:1045F0000F5F1F4F003DF7E01F0731F760911F0667
:10460000F61203C00E944F0EC6CF90E080E00E94D9
:1046100049238BE396E00E94CC0D84E596E00E944E
:10462000C70C88E19EE00FB6F894A89580936000CF
:104630000FBE90936000FFCF80E00C94AE1A011182
:104640000C94B61A0C94C11AEBE3F6E013821282B2
:10465000128614861386158681E086878AE693E0A3
:1046600091838083E5E8F5E08EE7808311820895E9
:10467000FB01DC0102C005900D9241505040D8F77B
:104680000895F999FECF92BD81BDF89A992780B51A
:104690000895262FF999FECF1FBA92BD81BD20BD86
:1046A0000FB6F894FA9AF99A0FBE01960895EE0F94
:1046B000FF1F0590F491E02D09940F931F93CF9362
:1046C000DF938230910510F482E090E0E0914F0694
:1046D000F091500630E020E0B0E0A0E0309799F48F
:1046E0002115310509F44AC0281B390B2430310546
:1046F000D8F58A819B816115710589F1FB0193834E
:104700008283FE0111C040815181028113814817CB
:104710005907E0F04817590799F4109761F012967D
:104720000C93129713961C933296CF01DF91CF9181
:104730001F910F91089500934F0610935006F4CFE8
:104740002115310551F04217530738F0A901DB015B
:104750009A01BD01DF01F801C1CFEF01F9CF9093BC
:10476000500680934F06CDCFFE01E20FF31F8193D9
:1047700091932250310939832883D7CF20914D0658
:1047800030914E06232B41F42091AC013091AD01C4
:1047900030934E0620934D062091AA013091AB0133
:1047A0002115310541F42DB73EB74091AE0150912E
:1047B000AF01241B350BE0914D06F0914E06E21738
:1047C000F307A0F42E1B3F0B2817390778F0AC0134
:1047D0004E5F5F4F2417350748F04E0F5F1F509311
:1047E0004E0640934D06819391939FCFF0E0E0E019
:1047F0009CCFCF93DF930097E9F0FC0132971382AF
:104800001282A0914F06B0915006ED0130E020E0F9
:104810001097A1F420813181820F931F20914D06C2
:1048200030914E062817390709F061C0F0934E0603
:10483000E0934D06DF91CF910895EA01CE17DF078F
:10484000E8F54A815B819E0141155105B1F7E90107
:10485000FB83EA8349915991C40FD51FEC17FD07DB
:1048600061F4808191810296840F951FE9019983FB
:104870008883828193819B838A83F0E0E0E01296B3
:104880008D919C9113970097B9F52D913C911197BB
:10489000CD010296820F931F20914D0630914E0656
:1048A0002817390739F6309751F5109250061092B3
:1048B0004F06B0934E06A0934D06BCCFD383C28360
:1048C00040815181840F951FC817D90761F44E5F4D
:1048D0005F4F88819981480F591F518340838A8196
:1048E0009B81938382832115310509F0B0CFF0932A
:1048F0005006E0934F069ECFFD01DC01C0CF13822E
:104900001282D7CF81E090E0F8940C94A424FB01AC
:10491000DC0104C08D910190801921F44150504078
:10492000C8F7881B990B0895FB01DC0102C00190B8
:104930000D9241505040D8F70895DC0101C06D93AD
:0C49400041505040E0F70895F894FFCF7C
:10494C0021260107000000005265666C6578204145
:10495C006461707400504F4B4B454E20434F4E5486
:10496C00524F4C4C4552004D69535465724164642E
:10497C006F6E7300484F524920434F2E2C4C5444B9
:10498C002E008080808080808080001400000000D9
:10499C00FF7FFF7FFF7FFF7F000000000000000013
:1049AC0008808080800000000000000000000000F3
:1049BC0000000008808080800000000000000000E3
:1049CC000000000000000880808080800000000053
:1049DC0000000801000008000000088080808000B2
:1049EC000000000200000101C80000005106800018
:1049FC000100000002187B7D0200000003183B3C04
:104A0C0004000000031E3B3C08000000021E7B7DDE
:104A1C00100000000106222320000000020C2829AF
:104A2C004000000003062425800000000200262719
:104A3C0000010000000C3E3F0002000000363E3F2B
:104A4C000004000000003E3F00080000002A3E3F2A
:104A5C000010000001303B3C0020000002363B3CC3
:104A6C000040000003303B3C00800000022A3B3C2D
:104A7C000100000000127B7D08000000001E7B7D01
:104A8C000020000001063B3C0040000001123B3CB2
:104A9C0000800000011E3B3C10000000012A3B3C42
:104AAC000010000002003B3C00080000020C3B3CE4
:104ABC000004000002183B3C0002000002243B3CB6
:104ACC000001000002303B3C312E300047503230A8
:104ADC0034302D43452028442D496E7075742900BF
:104AEC004F70656E20537469636B20436F6D6D75E9
:104AFC006E697479000904312E3000504F4B4B45D0
:104B0C004E20434F4E54524F4C4C455200484F523E
:104B1C004920434F2E2C4C54442E000904312E3086
:104B2C000058496E707574205354414E44415244A0
:104B3C002047414D45504144004D6963726F736F7E
:104B4C00667400090409023100010100A0FA09048D
:104B5C00000002FF5D0100112100010125811400FC
:104B6C000000001302080000070581032000010764
:104B7C00050203200004595B4437B502A0028C02E5
:104B8C008802DB02CD02BB02B7020202846A9600E5
:104B9C000303F902E102DD02014300005A5A5A5A9A
:104BAC005A014200FFFF00000000900B0B0485111E
:104BBC003107090B014300015A5A5A5A5A01450050
:104BCC005A5A5A5A5A5A014F00FFFF03000000016B
:104BDC004D000001FFFFFFFF0000000047071F070B
:104BEC0010074C17000000003B0717071007391778
:104BFC000000000056097C0E2D06EB043507320729
:104C0C003107003C427F525A4D5073445332000DD1
:104C1C000A00303132333435363738394142434467
:0A4C2C004546005345545550000062
:00000001FF
